{
  "contractName": "Certificates",
  "abi": [
    {
      "inputs": [
        {
          "internalType": "uint256",
          "name": "",
          "type": "uint256"
        }
      ],
      "name": "certificates",
      "outputs": [
        {
          "internalType": "uint256",
          "name": "id",
          "type": "uint256"
        },
        {
          "internalType": "string",
          "name": "title",
          "type": "string"
        },
        {
          "internalType": "string",
          "name": "description",
          "type": "string"
        },
        {
          "internalType": "uint256",
          "name": "max_vote",
          "type": "uint256"
        },
        {
          "internalType": "address",
          "name": "certifier",
          "type": "address"
        }
      ],
      "stateMutability": "view",
      "type": "function",
      "constant": true
    },
    {
      "inputs": [
        {
          "internalType": "uint256",
          "name": "",
          "type": "uint256"
        }
      ],
      "name": "students",
      "outputs": [
        {
          "internalType": "uint256",
          "name": "id",
          "type": "uint256"
        },
        {
          "internalType": "string",
          "name": "name",
          "type": "string"
        },
        {
          "internalType": "string",
          "name": "surname",
          "type": "string"
        },
        {
          "internalType": "uint256",
          "name": "birthdate",
          "type": "uint256"
        },
        {
          "internalType": "enum Certificates.Gender",
          "name": "gender",
          "type": "uint8"
        },
        {
          "internalType": "string",
          "name": "cv",
          "type": "string"
        }
      ],
      "stateMutability": "view",
      "type": "function",
      "constant": true
    },
    {
      "inputs": [
        {
          "internalType": "string",
          "name": "_title",
          "type": "string"
        },
        {
          "internalType": "string",
          "name": "_description",
          "type": "string"
        },
        {
          "internalType": "uint256",
          "name": "_max_vote",
          "type": "uint256"
        }
      ],
      "name": "addCertificate",
      "outputs": [],
      "stateMutability": "nonpayable",
      "type": "function"
    },
    {
      "inputs": [
        {
          "internalType": "uint256",
          "name": "id",
          "type": "uint256"
        }
      ],
      "name": "getCertificate",
      "outputs": [
        {
          "components": [
            {
              "internalType": "uint256",
              "name": "id",
              "type": "uint256"
            },
            {
              "internalType": "string",
              "name": "title",
              "type": "string"
            },
            {
              "internalType": "string",
              "name": "description",
              "type": "string"
            },
            {
              "internalType": "uint256",
              "name": "max_vote",
              "type": "uint256"
            },
            {
              "internalType": "address",
              "name": "certifier",
              "type": "address"
            },
            {
              "components": [
                {
                  "internalType": "uint256",
                  "name": "student",
                  "type": "uint256"
                },
                {
                  "internalType": "uint256",
                  "name": "certificate",
                  "type": "uint256"
                },
                {
                  "internalType": "string",
                  "name": "comment",
                  "type": "string"
                },
                {
                  "internalType": "uint256",
                  "name": "vote",
                  "type": "uint256"
                }
              ],
              "internalType": "struct Certificates.Assignment[]",
              "name": "assignments",
              "type": "tuple[]"
            }
          ],
          "internalType": "struct Certificates.Certificate",
          "name": "",
          "type": "tuple"
        }
      ],
      "stateMutability": "view",
      "type": "function",
      "constant": true
    },
    {
      "inputs": [
        {
          "internalType": "string",
          "name": "_name",
          "type": "string"
        },
        {
          "internalType": "string",
          "name": "_surname",
          "type": "string"
        },
        {
          "internalType": "uint256",
          "name": "_birthdate",
          "type": "uint256"
        },
        {
          "internalType": "enum Certificates.Gender",
          "name": "_gender",
          "type": "uint8"
        },
        {
          "internalType": "string",
          "name": "_cv",
          "type": "string"
        }
      ],
      "name": "addStudent",
      "outputs": [],
      "stateMutability": "nonpayable",
      "type": "function"
    },
    {
      "inputs": [
        {
          "internalType": "uint256",
          "name": "id",
          "type": "uint256"
        }
      ],
      "name": "getStudent",
      "outputs": [
        {
          "components": [
            {
              "internalType": "uint256",
              "name": "id",
              "type": "uint256"
            },
            {
              "internalType": "string",
              "name": "name",
              "type": "string"
            },
            {
              "internalType": "string",
              "name": "surname",
              "type": "string"
            },
            {
              "internalType": "uint256",
              "name": "birthdate",
              "type": "uint256"
            },
            {
              "internalType": "enum Certificates.Gender",
              "name": "gender",
              "type": "uint8"
            },
            {
              "internalType": "string",
              "name": "cv",
              "type": "string"
            },
            {
              "components": [
                {
                  "internalType": "uint256",
                  "name": "student",
                  "type": "uint256"
                },
                {
                  "internalType": "uint256",
                  "name": "certificate",
                  "type": "uint256"
                },
                {
                  "internalType": "string",
                  "name": "comment",
                  "type": "string"
                },
                {
                  "internalType": "uint256",
                  "name": "vote",
                  "type": "uint256"
                }
              ],
              "internalType": "struct Certificates.Assignment[]",
              "name": "assignments",
              "type": "tuple[]"
            }
          ],
          "internalType": "struct Certificates.Student",
          "name": "",
          "type": "tuple"
        }
      ],
      "stateMutability": "view",
      "type": "function",
      "constant": true
    },
    {
      "inputs": [
        {
          "internalType": "uint256",
          "name": "_student",
          "type": "uint256"
        },
        {
          "internalType": "uint256",
          "name": "_certificate",
          "type": "uint256"
        },
        {
          "internalType": "string",
          "name": "_comment",
          "type": "string"
        },
        {
          "internalType": "uint256",
          "name": "_vote",
          "type": "uint256"
        }
      ],
      "name": "addAssignment",
      "outputs": [],
      "stateMutability": "nonpayable",
      "type": "function"
    }
  ],
  "bytecode": "0x608060405234801561001057600080fd5b50611ca8806100206000396000f3fe608060405234801561001057600080fd5b506004361061007d5760003560e01c806351640fee1161005b57806351640fee146100ef578063642f91631461011f578063663b3e221461014f578063b8c33bc8146101835761007d565b806306ead22e146100825780630ef31994146100b75780632f83ed46146100d3575b600080fd5b61009c6004803603810190610097919061117a565b61019f565b6040516100ae969594939291906112c6565b60405180910390f35b6100d160048036038101906100cc91906113c6565b610380565b005b6100ed60048036038101906100e891906114a2565b610461565b005b6101096004803603810190610104919061117a565b6106e1565b6040516101169190611780565b60405180910390f35b6101396004803603810190610134919061117a565b6109ab565b6040516101469190611862565b60405180910390f35b6101696004803603810190610164919061117a565b610ceb565b60405161017a959493929190611893565b60405180910390f35b61019d600480360381019061019891906118f4565b610e51565b005b60006020528060005260406000206000915090508060000154908060010180546101c8906119b8565b80601f01602080910402602001604051908101604052809291908181526020018280546101f4906119b8565b80156102415780601f1061021657610100808354040283529160200191610241565b820191906000526020600020905b81548152906001019060200180831161022457829003601f168201915b505050505090806002018054610256906119b8565b80601f0160208091040260200160405190810160405280929190818152602001828054610282906119b8565b80156102cf5780601f106102a4576101008083540402835291602001916102cf565b820191906000526020600020905b8154815290600101906020018083116102b257829003601f168201915b5050505050908060030154908060040160009054906101000a900460ff16908060050180546102fd906119b8565b80601f0160208091040260200160405190810160405280929190818152602001828054610329906119b8565b80156103765780601f1061034b57610100808354040283529160200191610376565b820191906000526020600020905b81548152906001019060200180831161035957829003601f168201915b5050505050905086565b600082829050116103c6576040517f08c379a00000000000000000000000000000000000000000000000000000000081526004016103bd90611a36565b60405180910390fd5b6000806000438152602001908152602001600020905043816000018190555088888260010191906103f8929190610f76565b50868682600201919061040c929190610f76565b50848160030181905550838160040160006101000a81548160ff0219169083600281111561043d5761043c61124f565b5b02179055508282826005019190610455929190610f76565b50505050505050505050565b600080600087815260200190815260200160002060000154116104b9576040517f08c379a00000000000000000000000000000000000000000000000000000000081526004016104b090611aa2565b60405180910390fd5b6000600160008681526020019081526020016000206000015411610512576040517f08c379a000000000000000000000000000000000000000000000000000000000815260040161050990611b0e565b60405180910390fd5b806000108015610538575060016000858152602001908152602001600020600301548111155b610577576040517f08c379a000000000000000000000000000000000000000000000000000000000815260040161056e90611b7a565b60405180910390fd5b6000604051806080016040528087815260200186815260200185858080601f016020809104026020016040519081016040528093929190818152602001838380828437600081840152601f19601f8201169050808301925050505050505081526020018381525090506000808781526020019081526020016000206006018190806001815401808255809150506001900390600052602060002090600402016000909190919091506000820151816000015560208201518160010155604082015181600201908051906020019061064f929190610ffc565b5060608201518160030155505060016000868152602001908152602001600020600501819080600181540180825580915050600190039060005260206000209060040201600090919091909150600082015181600001556020820151816001015560408201518160020190805190602001906106cc929190610ffc565b50606082015181600301555050505050505050565b6106e9611082565b600160008381526020019081526020016000206040518060c001604052908160008201548152602001600182018054610721906119b8565b80601f016020809104026020016040519081016040528092919081815260200182805461074d906119b8565b801561079a5780601f1061076f5761010080835404028352916020019161079a565b820191906000526020600020905b81548152906001019060200180831161077d57829003601f168201915b505050505081526020016002820180546107b3906119b8565b80601f01602080910402602001604051908101604052809291908181526020018280546107df906119b8565b801561082c5780601f106108015761010080835404028352916020019161082c565b820191906000526020600020905b81548152906001019060200180831161080f57829003601f168201915b50505050508152602001600382015481526020016004820160009054906101000a900473ffffffffffffffffffffffffffffffffffffffff1673ffffffffffffffffffffffffffffffffffffffff1673ffffffffffffffffffffffffffffffffffffffff16815260200160058201805480602002602001604051908101604052809291908181526020016000905b8282101561099c57838290600052602060002090600402016040518060800160405290816000820154815260200160018201548152602001600282018054610901906119b8565b80601f016020809104026020016040519081016040528092919081815260200182805461092d906119b8565b801561097a5780601f1061094f5761010080835404028352916020019161097a565b820191906000526020600020905b81548152906001019060200180831161095d57829003601f168201915b50505050508152602001600382015481525050815260200190600101906108ba565b50505050815250509050919050565b6109b36110ce565b6000808381526020019081526020016000206040518060e0016040529081600082015481526020016001820180546109ea906119b8565b80601f0160208091040260200160405190810160405280929190818152602001828054610a16906119b8565b8015610a635780601f10610a3857610100808354040283529160200191610a63565b820191906000526020600020905b815481529060010190602001808311610a4657829003601f168201915b50505050508152602001600282018054610a7c906119b8565b80601f0160208091040260200160405190810160405280929190818152602001828054610aa8906119b8565b8015610af55780601f10610aca57610100808354040283529160200191610af5565b820191906000526020600020905b815481529060010190602001808311610ad857829003601f168201915b50505050508152602001600382015481526020016004820160009054906101000a900460ff166002811115610b2d57610b2c61124f565b5b6002811115610b3f57610b3e61124f565b5b8152602001600582018054610b53906119b8565b80601f0160208091040260200160405190810160405280929190818152602001828054610b7f906119b8565b8015610bcc5780601f10610ba157610100808354040283529160200191610bcc565b820191906000526020600020905b815481529060010190602001808311610baf57829003601f168201915b5050505050815260200160068201805480602002602001604051908101604052809291908181526020016000905b82821015610cdc57838290600052602060002090600402016040518060800160405290816000820154815260200160018201548152602001600282018054610c41906119b8565b80601f0160208091040260200160405190810160405280929190818152602001828054610c6d906119b8565b8015610cba5780601f10610c8f57610100808354040283529160200191610cba565b820191906000526020600020905b815481529060010190602001808311610c9d57829003601f168201915b5050505050815260200160038201548152505081526020019060010190610bfa565b50505050815250509050919050565b6001602052806000526040600020600091509050806000015490806001018054610d14906119b8565b80601f0160208091040260200160405190810160405280929190818152602001828054610d40906119b8565b8015610d8d5780601f10610d6257610100808354040283529160200191610d8d565b820191906000526020600020905b815481529060010190602001808311610d7057829003601f168201915b505050505090806002018054610da2906119b8565b80601f0160208091040260200160405190810160405280929190818152602001828054610dce906119b8565b8015610e1b5780601f10610df057610100808354040283529160200191610e1b565b820191906000526020600020905b815481529060010190602001808311610dfe57829003601f168201915b5050505050908060030154908060040160009054906101000a900473ffffffffffffffffffffffffffffffffffffffff16905085565b60008585905011610e97576040517f08c379a0000000000000000000000000000000000000000000000000000000008152600401610e8e90611be6565b60405180910390fd5b60008111610eda576040517f08c379a0000000000000000000000000000000000000000000000000000000008152600401610ed190611c52565b60405180910390fd5b60006001600043815260200190815260200160002090504381600001819055508585826001019190610f0d929190610f76565b508383826002019190610f21929190610f76565b50818160030181905550338160040160006101000a81548173ffffffffffffffffffffffffffffffffffffffff021916908373ffffffffffffffffffffffffffffffffffffffff160217905550505050505050565b828054610f82906119b8565b90600052602060002090601f016020900481019282610fa45760008555610feb565b82601f10610fbd57803560ff1916838001178555610feb565b82800160010185558215610feb579182015b82811115610fea578235825591602001919060010190610fcf565b5b509050610ff8919061111d565b5090565b828054611008906119b8565b90600052602060002090601f01602090048101928261102a5760008555611071565b82601f1061104357805160ff1916838001178555611071565b82800160010185558215611071579182015b82811115611070578251825591602001919060010190611055565b5b50905061107e919061111d565b5090565b6040518060c0016040528060008152602001606081526020016060815260200160008152602001600073ffffffffffffffffffffffffffffffffffffffff168152602001606081525090565b6040518060e0016040528060008152602001606081526020016060815260200160008152602001600060028111156111095761110861124f565b5b815260200160608152602001606081525090565b5b8082111561113657600081600090555060010161111e565b5090565b600080fd5b600080fd5b6000819050919050565b61115781611144565b811461116257600080fd5b50565b6000813590506111748161114e565b92915050565b6000602082840312156111905761118f61113a565b5b600061119e84828501611165565b91505092915050565b6111b081611144565b82525050565b600081519050919050565b600082825260208201905092915050565b60005b838110156111f05780820151818401526020810190506111d5565b838111156111ff576000848401525b50505050565b6000601f19601f8301169050919050565b6000611221826111b6565b61122b81856111c1565b935061123b8185602086016111d2565b61124481611205565b840191505092915050565b7f4e487b7100000000000000000000000000000000000000000000000000000000600052602160045260246000fd5b6003811061128f5761128e61124f565b5b50565b60008190506112a08261127e565b919050565b60006112b082611292565b9050919050565b6112c0816112a5565b82525050565b600060c0820190506112db60008301896111a7565b81810360208301526112ed8188611216565b905081810360408301526113018187611216565b905061131060608301866111a7565b61131d60808301856112b7565b81810360a083015261132f8184611216565b9050979650505050505050565b600080fd5b600080fd5b600080fd5b60008083601f8401126113615761136061133c565b5b8235905067ffffffffffffffff81111561137e5761137d611341565b5b60208301915083600182028301111561139a57611399611346565b5b9250929050565b600381106113ae57600080fd5b50565b6000813590506113c0816113a1565b92915050565b60008060008060008060008060a0898b0312156113e6576113e561113a565b5b600089013567ffffffffffffffff8111156114045761140361113f565b5b6114108b828c0161134b565b9850985050602089013567ffffffffffffffff8111156114335761143261113f565b5b61143f8b828c0161134b565b965096505060406114528b828c01611165565b94505060606114638b828c016113b1565b935050608089013567ffffffffffffffff8111156114845761148361113f565b5b6114908b828c0161134b565b92509250509295985092959890939650565b6000806000806000608086880312156114be576114bd61113a565b5b60006114cc88828901611165565b95505060206114dd88828901611165565b945050604086013567ffffffffffffffff8111156114fe576114fd61113f565b5b61150a8882890161134b565b9350935050606061151d88828901611165565b9150509295509295909350565b61153381611144565b82525050565b600082825260208201905092915050565b6000611555826111b6565b61155f8185611539565b935061156f8185602086016111d2565b61157881611205565b840191505092915050565b600073ffffffffffffffffffffffffffffffffffffffff82169050919050565b60006115ae82611583565b9050919050565b6115be816115a3565b82525050565b600081519050919050565b600082825260208201905092915050565b6000819050602082019050919050565b6000608083016000830151611608600086018261152a565b50602083015161161b602086018261152a565b5060408301518482036040860152611633828261154a565b9150506060830151611648606086018261152a565b508091505092915050565b600061165f83836115f0565b905092915050565b6000602082019050919050565b600061167f826115c4565b61168981856115cf565b93508360208202850161169b856115e0565b8060005b858110156116d757848403895281516116b88582611653565b94506116c383611667565b925060208a0199505060018101905061169f565b50829750879550505050505092915050565b600060c083016000830151611701600086018261152a565b5060208301518482036020860152611719828261154a565b91505060408301518482036040860152611733828261154a565b9150506060830151611748606086018261152a565b50608083015161175b60808601826115b5565b5060a083015184820360a08601526117738282611674565b9150508091505092915050565b6000602082019050818103600083015261179a81846116e9565b905092915050565b6117ab816112a5565b82525050565b600060e0830160008301516117c9600086018261152a565b50602083015184820360208601526117e1828261154a565b915050604083015184820360408601526117fb828261154a565b9150506060830151611810606086018261152a565b50608083015161182360808601826117a2565b5060a083015184820360a086015261183b828261154a565b91505060c083015184820360c08601526118558282611674565b9150508091505092915050565b6000602082019050818103600083015261187c81846117b1565b905092915050565b61188d816115a3565b82525050565b600060a0820190506118a860008301886111a7565b81810360208301526118ba8187611216565b905081810360408301526118ce8186611216565b90506118dd60608301856111a7565b6118ea6080830184611884565b9695505050505050565b6000806000806000606086880312156119105761190f61113a565b5b600086013567ffffffffffffffff81111561192e5761192d61113f565b5b61193a8882890161134b565b9550955050602086013567ffffffffffffffff81111561195d5761195c61113f565b5b6119698882890161134b565b9350935050604061197c88828901611165565b9150509295509295909350565b7f4e487b7100000000000000000000000000000000000000000000000000000000600052602260045260246000fd5b600060028204905060018216806119d057607f821691505b602082108114156119e4576119e3611989565b5b50919050565b7f696e76616c696420637600000000000000000000000000000000000000000000600082015250565b6000611a20600a836111c1565b9150611a2b826119ea565b602082019050919050565b60006020820190508181036000830152611a4f81611a13565b9050919050565b7f6e6f6e2d6578697374656e742073747564656e74000000000000000000000000600082015250565b6000611a8c6014836111c1565b9150611a9782611a56565b602082019050919050565b60006020820190508181036000830152611abb81611a7f565b9050919050565b7f6e6f6e2d6578697374656e742063657274696669636174650000000000000000600082015250565b6000611af86018836111c1565b9150611b0382611ac2565b602082019050919050565b60006020820190508181036000830152611b2781611aeb565b9050919050565b7f696e76616c696420766f74650000000000000000000000000000000000000000600082015250565b6000611b64600c836111c1565b9150611b6f82611b2e565b602082019050919050565b60006020820190508181036000830152611b9381611b57565b9050919050565b7f696e76616c6964207469746c6500000000000000000000000000000000000000600082015250565b6000611bd0600d836111c1565b9150611bdb82611b9a565b602082019050919050565b60006020820190508181036000830152611bff81611bc3565b9050919050565b7f696e76616c6964206d617820766f746500000000000000000000000000000000600082015250565b6000611c3c6010836111c1565b9150611c4782611c06565b602082019050919050565b60006020820190508181036000830152611c6b81611c2f565b905091905056fea26469706673582212209543d1c9a488934a37d507354129faa8b0a164c4d3096b16ac8f8c48eb28cb8364736f6c634300080c0033",
  "immutableReferences": {},
  "source": "// SPDX-License-Identifier: MIT\npragma solidity ^0.8.0;\npragma experimental ABIEncoderV2;\n\ncontract Certificates {\n\n    struct Assignment {\n        uint student;\n        uint certificate;\n        string comment;\n        uint vote;\n    }\n\n    enum Gender {\n        MALE,\n        FEMALE,\n        OTHER\n    }\n\n    struct Student {\n        uint id;\n        string name;\n        string surname;\n        uint256 birthdate;\n        Gender gender;\n        string cv; \n        Assignment[] assignments;\n    }\n\n    struct Certificate {\n        uint id;\n        string title;\n        string description;\n        uint max_vote;\n        address certifier;\n        Assignment[] assignments;\n    }\n\n    mapping(uint => Student) public students;\n\n    mapping(uint => Certificate) public certificates;\n\n    function addCertificate(string calldata _title, string calldata _description, uint _max_vote) external {\n        require(bytes(_title).length > 0, \"invalid title\");\n        require(_max_vote > 0, \"invalid max vote\");\n        Certificate storage certificate = certificates[block.number];\n        certificate.id = block.number;\n        certificate.title = _title;\n        certificate.description = _description;\n        certificate.max_vote = _max_vote;\n        certificate.certifier = msg.sender;\n    }\n\n    function getCertificate(uint id) external view returns(Certificate memory) {\n        return certificates[id];\n    }\n\n    function addStudent(string calldata _name, string calldata _surname, uint256 _birthdate, Gender _gender, string calldata _cv) external {\n        require(bytes(_cv).length > 0, \"invalid cv\");\n        Student storage student = students[block.number];\n        student.id = block.number;\n        student.name = _name;\n        student.surname = _surname;\n        student.birthdate = _birthdate;\n        student.gender = _gender;\n        student.cv = _cv;\n    }\n\n    function getStudent(uint id) external view returns(Student memory) {\n        return students[id];\n    }\n\n    function addAssignment(uint _student, uint _certificate, string calldata _comment, uint _vote) external {\n        require(students[_student].id > 0, \"non-existent student\");\n        require(certificates[_certificate].id > 0, \"non-existent certificate\");\n        require(0 < _vote && _vote <= certificates[_certificate].max_vote, \"invalid vote\");\n        Assignment memory assignment = Assignment({\n            student: _student,\n            certificate: _certificate,\n            comment: _comment,\n            vote: _vote\n        });\n        students[_student].assignments.push(assignment);\n        certificates[_certificate].assignments.push(assignment);\n    }\n\n}",
  "sourcePath": "/Volumes/DISK0S3/Lavoro/redenv/progetti/digital_cv/smart_contract/contracts/Certificates.sol",
  "compiler": {
    "name": "solc",
    "version": "0.8.12+commit.f00d7308.Emscripten.clang"
  },
  "schemaVersion": "3.4.6",
  "updatedAt": "2022-03-22T03:20:37.195Z",
  "networkType": "ethereum",
  "devdoc": {
    "kind": "dev",
    "methods": {},
    "version": 1
  },
  "userdoc": {
    "kind": "user",
    "methods": {},
    "version": 1
  }
}