{
  "contractName": "Certificates",
  "abi": [
    {
      "inputs": [
        {
          "internalType": "uint256",
          "name": "",
          "type": "uint256"
        }
      ],
      "name": "assignments",
      "outputs": [
        {
          "internalType": "uint256",
          "name": "id",
          "type": "uint256"
        },
        {
          "internalType": "uint256",
          "name": "student",
          "type": "uint256"
        },
        {
          "internalType": "uint256",
          "name": "certificate",
          "type": "uint256"
        },
        {
          "internalType": "string",
          "name": "comment",
          "type": "string"
        },
        {
          "internalType": "uint256",
          "name": "vote",
          "type": "uint256"
        }
      ],
      "stateMutability": "view",
      "type": "function",
      "constant": true
    },
    {
      "inputs": [
        {
          "internalType": "uint256",
          "name": "",
          "type": "uint256"
        }
      ],
      "name": "certificates",
      "outputs": [
        {
          "internalType": "uint256",
          "name": "id",
          "type": "uint256"
        },
        {
          "internalType": "string",
          "name": "title",
          "type": "string"
        },
        {
          "internalType": "string",
          "name": "description",
          "type": "string"
        },
        {
          "internalType": "uint256",
          "name": "max_vote",
          "type": "uint256"
        },
        {
          "internalType": "address",
          "name": "certifier",
          "type": "address"
        }
      ],
      "stateMutability": "view",
      "type": "function",
      "constant": true
    },
    {
      "inputs": [
        {
          "internalType": "uint256",
          "name": "",
          "type": "uint256"
        }
      ],
      "name": "students",
      "outputs": [
        {
          "internalType": "uint256",
          "name": "id",
          "type": "uint256"
        },
        {
          "internalType": "string",
          "name": "name",
          "type": "string"
        },
        {
          "internalType": "string",
          "name": "surname",
          "type": "string"
        },
        {
          "internalType": "uint256",
          "name": "birthdate",
          "type": "uint256"
        },
        {
          "internalType": "enum Certificates.Gender",
          "name": "gender",
          "type": "uint8"
        },
        {
          "internalType": "string",
          "name": "cv",
          "type": "string"
        }
      ],
      "stateMutability": "view",
      "type": "function",
      "constant": true
    },
    {
      "inputs": [
        {
          "internalType": "string",
          "name": "_title",
          "type": "string"
        },
        {
          "internalType": "string",
          "name": "_description",
          "type": "string"
        },
        {
          "internalType": "uint256",
          "name": "_max_vote",
          "type": "uint256"
        }
      ],
      "name": "addCertificate",
      "outputs": [],
      "stateMutability": "nonpayable",
      "type": "function"
    },
    {
      "inputs": [
        {
          "internalType": "string",
          "name": "_name",
          "type": "string"
        },
        {
          "internalType": "string",
          "name": "_surname",
          "type": "string"
        },
        {
          "internalType": "uint256",
          "name": "_birthdate",
          "type": "uint256"
        },
        {
          "internalType": "enum Certificates.Gender",
          "name": "_gender",
          "type": "uint8"
        },
        {
          "internalType": "string",
          "name": "_cv",
          "type": "string"
        }
      ],
      "name": "addStudent",
      "outputs": [],
      "stateMutability": "nonpayable",
      "type": "function"
    },
    {
      "inputs": [
        {
          "internalType": "uint256",
          "name": "_student",
          "type": "uint256"
        },
        {
          "internalType": "uint256",
          "name": "_certificate",
          "type": "uint256"
        },
        {
          "internalType": "string",
          "name": "_comment",
          "type": "string"
        },
        {
          "internalType": "uint256",
          "name": "_vote",
          "type": "uint256"
        }
      ],
      "name": "addAssignment",
      "outputs": [],
      "stateMutability": "nonpayable",
      "type": "function"
    }
  ],
  "bytecode": "0x608060405234801561001057600080fd5b5061129e806100206000396000f3fe608060405234801561001057600080fd5b50600436106100625760003560e01c806306ead22e146100675780630ef319941461009c5780632f83ed46146100b85780634e50c75c146100d4578063663b3e2214610108578063b8c33bc81461013c575b600080fd5b610081600480360381019061007c9190610a3e565b610158565b60405161009396959493929190610b8a565b60405180910390f35b6100b660048036038101906100b19190610c8a565b610339565b005b6100d260048036038101906100cd9190610d66565b610420565b005b6100ee60048036038101906100e99190610a3e565b61060c565b6040516100ff959493929190610dee565b60405180910390f35b610122600480360381019061011d9190610a3e565b6106ca565b604051610133959493929190610e89565b60405180910390f35b61015660048036038101906101519190610eea565b610830565b005b600060205280600052604060002060009150905080600001549080600101805461018190610fae565b80601f01602080910402602001604051908101604052809291908181526020018280546101ad90610fae565b80156101fa5780601f106101cf576101008083540402835291602001916101fa565b820191906000526020600020905b8154815290600101906020018083116101dd57829003601f168201915b50505050509080600201805461020f90610fae565b80601f016020809104026020016040519081016040528092919081815260200182805461023b90610fae565b80156102885780601f1061025d57610100808354040283529160200191610288565b820191906000526020600020905b81548152906001019060200180831161026b57829003601f168201915b5050505050908060030154908060040160009054906101000a900460ff16908060050180546102b690610fae565b80601f01602080910402602001604051908101604052809291908181526020018280546102e290610fae565b801561032f5780601f106103045761010080835404028352916020019161032f565b820191906000526020600020905b81548152906001019060200180831161031257829003601f168201915b5050505050905086565b6000828290501161037f576040517f08c379a00000000000000000000000000000000000000000000000000000000081526004016103769061102c565b60405180910390fd5b60004390506000806000838152602001908152602001600020905081816000018190555089898260010191906103b692919061095b565b5087878260020191906103ca92919061095b565b50858160030181905550848160040160006101000a81548160ff021916908360028111156103fb576103fa610b13565b5b0217905550838382600501919061041392919061095b565b5050505050505050505050565b60008060008781526020019081526020016000206000015411610478576040517f08c379a000000000000000000000000000000000000000000000000000000000815260040161046f90611098565b60405180910390fd5b60006001600086815260200190815260200160002060000154116104d1576040517f08c379a00000000000000000000000000000000000000000000000000000000081526004016104c890611104565b60405180910390fd5b8060001080156104f7575060016000858152602001908152602001600020600301548111155b610536576040517f08c379a000000000000000000000000000000000000000000000000000000000815260040161052d90611170565b60405180910390fd5b60004390506000600260008381526020019081526020016000209050818160000181905550868160010181905550858160020181905550848482600301919061058092919061095b565b508281600401819055506000808881526020019081526020016000206006018290806001815401808255809150506001900390600052602060002001600090919091909150556001600087815260200190815260200160002060050182908060018154018082558091505060019003906000526020600020016000909190919091505550505050505050565b600260205280600052604060002060009150905080600001549080600101549080600201549080600301805461064190610fae565b80601f016020809104026020016040519081016040528092919081815260200182805461066d90610fae565b80156106ba5780601f1061068f576101008083540402835291602001916106ba565b820191906000526020600020905b81548152906001019060200180831161069d57829003601f168201915b5050505050908060040154905085565b60016020528060005260406000206000915090508060000154908060010180546106f390610fae565b80601f016020809104026020016040519081016040528092919081815260200182805461071f90610fae565b801561076c5780601f106107415761010080835404028352916020019161076c565b820191906000526020600020905b81548152906001019060200180831161074f57829003601f168201915b50505050509080600201805461078190610fae565b80601f01602080910402602001604051908101604052809291908181526020018280546107ad90610fae565b80156107fa5780601f106107cf576101008083540402835291602001916107fa565b820191906000526020600020905b8154815290600101906020018083116107dd57829003601f168201915b5050505050908060030154908060040160009054906101000a900473ffffffffffffffffffffffffffffffffffffffff16905085565b60008585905011610876576040517f08c379a000000000000000000000000000000000000000000000000000000000815260040161086d906111dc565b60405180910390fd5b600081116108b9576040517f08c379a00000000000000000000000000000000000000000000000000000000081526004016108b090611248565b60405180910390fd5b6000439050600060016000838152602001908152602001600020905081816000018190555086868260010191906108f192919061095b565b50848482600201919061090592919061095b565b50828160030181905550338160040160006101000a81548173ffffffffffffffffffffffffffffffffffffffff021916908373ffffffffffffffffffffffffffffffffffffffff16021790555050505050505050565b82805461096790610fae565b90600052602060002090601f01602090048101928261098957600085556109d0565b82601f106109a257803560ff19168380011785556109d0565b828001600101855582156109d0579182015b828111156109cf5782358255916020019190600101906109b4565b5b5090506109dd91906109e1565b5090565b5b808211156109fa5760008160009055506001016109e2565b5090565b600080fd5b600080fd5b6000819050919050565b610a1b81610a08565b8114610a2657600080fd5b50565b600081359050610a3881610a12565b92915050565b600060208284031215610a5457610a536109fe565b5b6000610a6284828501610a29565b91505092915050565b610a7481610a08565b82525050565b600081519050919050565b600082825260208201905092915050565b60005b83811015610ab4578082015181840152602081019050610a99565b83811115610ac3576000848401525b50505050565b6000601f19601f8301169050919050565b6000610ae582610a7a565b610aef8185610a85565b9350610aff818560208601610a96565b610b0881610ac9565b840191505092915050565b7f4e487b7100000000000000000000000000000000000000000000000000000000600052602160045260246000fd5b60038110610b5357610b52610b13565b5b50565b6000819050610b6482610b42565b919050565b6000610b7482610b56565b9050919050565b610b8481610b69565b82525050565b600060c082019050610b9f6000830189610a6b565b8181036020830152610bb18188610ada565b90508181036040830152610bc58187610ada565b9050610bd46060830186610a6b565b610be16080830185610b7b565b81810360a0830152610bf38184610ada565b9050979650505050505050565b600080fd5b600080fd5b600080fd5b60008083601f840112610c2557610c24610c00565b5b8235905067ffffffffffffffff811115610c4257610c41610c05565b5b602083019150836001820283011115610c5e57610c5d610c0a565b5b9250929050565b60038110610c7257600080fd5b50565b600081359050610c8481610c65565b92915050565b60008060008060008060008060a0898b031215610caa57610ca96109fe565b5b600089013567ffffffffffffffff811115610cc857610cc7610a03565b5b610cd48b828c01610c0f565b9850985050602089013567ffffffffffffffff811115610cf757610cf6610a03565b5b610d038b828c01610c0f565b96509650506040610d168b828c01610a29565b9450506060610d278b828c01610c75565b935050608089013567ffffffffffffffff811115610d4857610d47610a03565b5b610d548b828c01610c0f565b92509250509295985092959890939650565b600080600080600060808688031215610d8257610d816109fe565b5b6000610d9088828901610a29565b9550506020610da188828901610a29565b945050604086013567ffffffffffffffff811115610dc257610dc1610a03565b5b610dce88828901610c0f565b93509350506060610de188828901610a29565b9150509295509295909350565b600060a082019050610e036000830188610a6b565b610e106020830187610a6b565b610e1d6040830186610a6b565b8181036060830152610e2f8185610ada565b9050610e3e6080830184610a6b565b9695505050505050565b600073ffffffffffffffffffffffffffffffffffffffff82169050919050565b6000610e7382610e48565b9050919050565b610e8381610e68565b82525050565b600060a082019050610e9e6000830188610a6b565b8181036020830152610eb08187610ada565b90508181036040830152610ec48186610ada565b9050610ed36060830185610a6b565b610ee06080830184610e7a565b9695505050505050565b600080600080600060608688031215610f0657610f056109fe565b5b600086013567ffffffffffffffff811115610f2457610f23610a03565b5b610f3088828901610c0f565b9550955050602086013567ffffffffffffffff811115610f5357610f52610a03565b5b610f5f88828901610c0f565b93509350506040610f7288828901610a29565b9150509295509295909350565b7f4e487b7100000000000000000000000000000000000000000000000000000000600052602260045260246000fd5b60006002820490506001821680610fc657607f821691505b60208210811415610fda57610fd9610f7f565b5b50919050565b7f696e76616c696420637600000000000000000000000000000000000000000000600082015250565b6000611016600a83610a85565b915061102182610fe0565b602082019050919050565b6000602082019050818103600083015261104581611009565b9050919050565b7f6e6f6e2d6578697374656e742073747564656e74000000000000000000000000600082015250565b6000611082601483610a85565b915061108d8261104c565b602082019050919050565b600060208201905081810360008301526110b181611075565b9050919050565b7f6e6f6e2d6578697374656e742063657274696669636174650000000000000000600082015250565b60006110ee601883610a85565b91506110f9826110b8565b602082019050919050565b6000602082019050818103600083015261111d816110e1565b9050919050565b7f696e76616c696420766f74650000000000000000000000000000000000000000600082015250565b600061115a600c83610a85565b915061116582611124565b602082019050919050565b600060208201905081810360008301526111898161114d565b9050919050565b7f696e76616c6964207469746c6500000000000000000000000000000000000000600082015250565b60006111c6600d83610a85565b91506111d182611190565b602082019050919050565b600060208201905081810360008301526111f5816111b9565b9050919050565b7f696e76616c6964206d617820766f746500000000000000000000000000000000600082015250565b6000611232601083610a85565b915061123d826111fc565b602082019050919050565b6000602082019050818103600083015261126181611225565b905091905056fea26469706673582212209305e8b3cf8856e4545e0e718026b8d6d08a78c6428d90c3577761fb92020e7f64736f6c634300080c0033",
  "immutableReferences": {},
  "source": "// SPDX-License-Identifier: MIT\npragma solidity ^0.8.0;\npragma experimental ABIEncoderV2;\n\ncontract Certificates {\n\n    enum Gender {\n        MALE,\n        FEMALE,\n        OTHER\n    }\n\n    struct Assignment {\n        uint id;\n        uint student;\n        uint certificate;\n        string comment;\n        uint vote;\n    }\n\n    struct Student {\n        uint id;\n        string name;\n        string surname;\n        uint256 birthdate;\n        Gender gender;\n        string cv; \n        uint[] assignments;\n    }\n\n    struct Certificate {\n        uint id;\n        string title;\n        string description;\n        uint max_vote;\n        address certifier;\n        uint[] assignments;\n    }\n\n    mapping(uint => Student) public students;\n\n    mapping(uint => Certificate) public certificates;\n\n    mapping(uint => Assignment) public assignments;\n\n    function addCertificate(string calldata _title, string calldata _description, uint _max_vote) external {\n        require(bytes(_title).length > 0, \"invalid title\");\n        require(_max_vote > 0, \"invalid max vote\");\n        uint id = block.number;\n        Certificate storage certificate = certificates[id];\n        certificate.id = id;\n        certificate.title = _title;\n        certificate.description = _description;\n        certificate.max_vote = _max_vote;\n        certificate.certifier = msg.sender;\n    }\n\n    function addStudent(string calldata _name, string calldata _surname, uint256 _birthdate, Gender _gender, string calldata _cv) external {\n        require(bytes(_cv).length > 0, \"invalid cv\");\n        uint id = block.number;\n        Student storage student = students[id];\n        student.id = id;\n        student.name = _name;\n        student.surname = _surname;\n        student.birthdate = _birthdate;\n        student.gender = _gender;\n        student.cv = _cv;\n    }\n\n    function addAssignment(uint _student, uint _certificate, string calldata _comment, uint _vote) external {\n        require(students[_student].id > 0, \"non-existent student\");\n        require(certificates[_certificate].id > 0, \"non-existent certificate\");\n        require(0 < _vote && _vote <= certificates[_certificate].max_vote, \"invalid vote\");\n        uint id = block.number;\n        Assignment storage assignment = assignments[id];\n        assignment.id = id;\n        assignment.student = _student;\n        assignment.certificate = _certificate;\n        assignment.comment = _comment;\n        assignment.vote = _vote;\n        students[_student].assignments.push(id);\n        certificates[_certificate].assignments.push(id);\n    }\n\n}",
  "sourcePath": "/Volumes/DISK0S3/Lavoro/redenv/progetti/digital_cv/smart_contract/contracts/Certificates.sol",
  "compiler": {
    "name": "solc",
    "version": "0.8.12+commit.f00d7308.Emscripten.clang"
  },
  "schemaVersion": "3.4.6",
  "updatedAt": "2022-03-22T13:37:19.992Z",
  "networkType": "ethereum",
  "devdoc": {
    "kind": "dev",
    "methods": {},
    "version": 1
  },
  "userdoc": {
    "kind": "user",
    "methods": {},
    "version": 1
  }
}