{
  "contractName": "DigitalCV",
  "abi": [
    {
      "anonymous": false,
      "inputs": [
        {
          "indexed": false,
          "internalType": "string",
          "name": "certificate",
          "type": "string"
        }
      ],
      "name": "CreationCertificate",
      "type": "event"
    },
    {
      "inputs": [
        {
          "internalType": "uint256",
          "name": "",
          "type": "uint256"
        }
      ],
      "name": "certificates",
      "outputs": [
        {
          "internalType": "string",
          "name": "",
          "type": "string"
        }
      ],
      "stateMutability": "view",
      "type": "function",
      "constant": true
    },
    {
      "inputs": [
        {
          "internalType": "string",
          "name": "certificate",
          "type": "string"
        }
      ],
      "name": "createCertificate",
      "outputs": [],
      "stateMutability": "nonpayable",
      "type": "function"
    }
  ],
  "bytecode": "0x608060405234801561001057600080fd5b506104fa806100206000396000f3fe608060405234801561001057600080fd5b50600436106100365760003560e01c8063663b3e221461003b578063744448821461006b575b600080fd5b61005560048036038101906100509190610269565b610087565b604051610062919061032f565b60405180910390f35b610085600480360381019061008091906103b6565b610127565b005b600060205280600052604060002060009150905080546100a690610432565b80601f01602080910402602001604051908101604052809291908181526020018280546100d290610432565b801561011f5780601f106100f45761010080835404028352916020019161011f565b820191906000526020600020905b81548152906001019060200180831161010257829003601f168201915b505050505081565b81816000804381526020019081526020016000209190610148929190610186565b507f61d02c29248adf5f6f41821476156553ed2f997560c9c726f4952bd479f51eee828260405161017a9291906104a0565b60405180910390a15050565b82805461019290610432565b90600052602060002090601f0160209004810192826101b457600085556101fb565b82601f106101cd57803560ff19168380011785556101fb565b828001600101855582156101fb579182015b828111156101fa5782358255916020019190600101906101df565b5b509050610208919061020c565b5090565b5b8082111561022557600081600090555060010161020d565b5090565b600080fd5b600080fd5b6000819050919050565b61024681610233565b811461025157600080fd5b50565b6000813590506102638161023d565b92915050565b60006020828403121561027f5761027e610229565b5b600061028d84828501610254565b91505092915050565b600081519050919050565b600082825260208201905092915050565b60005b838110156102d05780820151818401526020810190506102b5565b838111156102df576000848401525b50505050565b6000601f19601f8301169050919050565b600061030182610296565b61030b81856102a1565b935061031b8185602086016102b2565b610324816102e5565b840191505092915050565b6000602082019050818103600083015261034981846102f6565b905092915050565b600080fd5b600080fd5b600080fd5b60008083601f84011261037657610375610351565b5b8235905067ffffffffffffffff81111561039357610392610356565b5b6020830191508360018202830111156103af576103ae61035b565b5b9250929050565b600080602083850312156103cd576103cc610229565b5b600083013567ffffffffffffffff8111156103eb576103ea61022e565b5b6103f785828601610360565b92509250509250929050565b7f4e487b7100000000000000000000000000000000000000000000000000000000600052602260045260246000fd5b6000600282049050600182168061044a57607f821691505b6020821081141561045e5761045d610403565b5b50919050565b82818337600083830152505050565b600061047f83856102a1565b935061048c838584610464565b610495836102e5565b840190509392505050565b600060208201905081810360008301526104bb818486610473565b9050939250505056fea26469706673582212205b8602b38e3dfcf520c99d9d1495cefac4744647d8b5d9a0692baf6cb572f61164736f6c634300080c0033",
  "immutableReferences": {},
  "source": "// SPDX-License-Identifier: MIT\npragma solidity ^0.8.0;\n\ncontract DigitalCV {\n\n    mapping(uint => string) public certificates;\n\n    event CreationCertificate(string certificate);\n\n    function createCertificate(string calldata certificate) external {\n        certificates[block.number] = certificate;\n        emit CreationCertificate(certificate);\n    }\n\n}",
  "sourcePath": "/Volumes/DISK0S3/Lavoro/redenv/progetti/digital_cv/smart_contract/contracts/DigitalCV.sol",
  "compiler": {
    "name": "solc",
    "version": "0.8.12+commit.f00d7308.Emscripten.clang"
  },
  "schemaVersion": "3.4.6",
  "updatedAt": "2022-03-24T18:02:15.677Z",
  "networkType": "ethereum",
  "devdoc": {
    "kind": "dev",
    "methods": {},
    "version": 1
  },
  "userdoc": {
    "kind": "user",
    "methods": {},
    "version": 1
  }
}