{
  "contractName": "DigitalCV",
  "abi": [
    {
      "anonymous": false,
      "inputs": [
        {
          "indexed": false,
          "internalType": "uint256",
          "name": "id",
          "type": "uint256"
        },
        {
          "indexed": false,
          "internalType": "string",
          "name": "student",
          "type": "string"
        },
        {
          "indexed": false,
          "internalType": "uint256",
          "name": "id_certificate",
          "type": "uint256"
        },
        {
          "indexed": false,
          "internalType": "string",
          "name": "title",
          "type": "string"
        },
        {
          "indexed": false,
          "internalType": "string",
          "name": "description",
          "type": "string"
        },
        {
          "indexed": false,
          "internalType": "uint256",
          "name": "max_vote",
          "type": "uint256"
        },
        {
          "indexed": false,
          "internalType": "address",
          "name": "certifier",
          "type": "address"
        },
        {
          "indexed": false,
          "internalType": "string",
          "name": "executor",
          "type": "string"
        },
        {
          "indexed": false,
          "internalType": "string",
          "name": "comment",
          "type": "string"
        },
        {
          "indexed": false,
          "internalType": "uint256",
          "name": "vote",
          "type": "uint256"
        }
      ],
      "name": "CreationAssignment",
      "type": "event"
    },
    {
      "anonymous": false,
      "inputs": [
        {
          "indexed": false,
          "internalType": "uint256",
          "name": "id",
          "type": "uint256"
        },
        {
          "indexed": false,
          "internalType": "string",
          "name": "title",
          "type": "string"
        },
        {
          "indexed": false,
          "internalType": "string",
          "name": "description",
          "type": "string"
        },
        {
          "indexed": false,
          "internalType": "uint256",
          "name": "max_vote",
          "type": "uint256"
        },
        {
          "indexed": false,
          "internalType": "address",
          "name": "certifier",
          "type": "address"
        },
        {
          "indexed": false,
          "internalType": "string",
          "name": "executor",
          "type": "string"
        }
      ],
      "name": "CreationCertificate",
      "type": "event"
    },
    {
      "inputs": [
        {
          "internalType": "uint256",
          "name": "",
          "type": "uint256"
        }
      ],
      "name": "assignments",
      "outputs": [
        {
          "internalType": "uint256",
          "name": "id",
          "type": "uint256"
        },
        {
          "internalType": "string",
          "name": "student",
          "type": "string"
        },
        {
          "internalType": "uint256",
          "name": "certificate",
          "type": "uint256"
        },
        {
          "internalType": "string",
          "name": "comment",
          "type": "string"
        },
        {
          "internalType": "uint256",
          "name": "vote",
          "type": "uint256"
        }
      ],
      "stateMutability": "view",
      "type": "function",
      "constant": true
    },
    {
      "inputs": [
        {
          "internalType": "uint256",
          "name": "",
          "type": "uint256"
        }
      ],
      "name": "certificates",
      "outputs": [
        {
          "internalType": "uint256",
          "name": "id",
          "type": "uint256"
        },
        {
          "internalType": "string",
          "name": "title",
          "type": "string"
        },
        {
          "internalType": "string",
          "name": "description",
          "type": "string"
        },
        {
          "internalType": "uint256",
          "name": "max_vote",
          "type": "uint256"
        },
        {
          "internalType": "address",
          "name": "certifier",
          "type": "address"
        },
        {
          "internalType": "string",
          "name": "executor",
          "type": "string"
        }
      ],
      "stateMutability": "view",
      "type": "function",
      "constant": true
    },
    {
      "inputs": [
        {
          "internalType": "string",
          "name": "_title",
          "type": "string"
        },
        {
          "internalType": "string",
          "name": "_description",
          "type": "string"
        },
        {
          "internalType": "uint256",
          "name": "_max_vote",
          "type": "uint256"
        },
        {
          "internalType": "string",
          "name": "_executor",
          "type": "string"
        }
      ],
      "name": "createCertificate",
      "outputs": [],
      "stateMutability": "nonpayable",
      "type": "function"
    },
    {
      "inputs": [
        {
          "internalType": "string",
          "name": "_student",
          "type": "string"
        },
        {
          "internalType": "uint256",
          "name": "_certificate",
          "type": "uint256"
        },
        {
          "internalType": "string",
          "name": "_comment",
          "type": "string"
        },
        {
          "internalType": "uint256",
          "name": "_vote",
          "type": "uint256"
        }
      ],
      "name": "createAssignment",
      "outputs": [],
      "stateMutability": "nonpayable",
      "type": "function"
    }
  ],
  "bytecode": "0x608060405234801561001057600080fd5b506113b8806100206000396000f3fe608060405234801561001057600080fd5b506004361061004c5760003560e01c80632822609e146100515780634e50c75c1461006d578063663b3e22146100a1578063b557010f146100d6575b600080fd5b61006b60048036038101906100669190610bde565b6100f2565b005b61008760048036038101906100829190610c85565b6105a6565b604051610098959493929190610d5a565b60405180910390f35b6100bb60048036038101906100b69190610c85565b6106ec565b6040516100cd96959493929190610dfc565b60405180910390f35b6100f060048036038101906100eb9190610e72565b6108e0565b005b60008686905011610138576040517f08c379a000000000000000000000000000000000000000000000000000000000815260040161012f90610f87565b60405180910390fd5b60008060008681526020019081526020016000206000015411610190576040517f08c379a000000000000000000000000000000000000000000000000000000000815260040161018790610ff3565b60405180910390fd5b8060001080156101b55750600080858152602001908152602001600020600301548111155b6101f4576040517f08c379a00000000000000000000000000000000000000000000000000000000081526004016101eb9061105f565b60405180910390fd5b60004390506000600160008381526020019081526020016000209050818160000181905550878782600101919061022c929190610a96565b508581600201819055508484826003019190610249929190610a96565b508281600401819055506000808781526020019081526020016000206006018290806001815401808255809150506001900390600052602060002001600090919091909150556000806000836000015481526020019081526020016000206040518060e0016040529081600082015481526020016001820180546102cc906110ae565b80601f01602080910402602001604051908101604052809291908181526020018280546102f8906110ae565b80156103455780601f1061031a57610100808354040283529160200191610345565b820191906000526020600020905b81548152906001019060200180831161032857829003601f168201915b5050505050815260200160028201805461035e906110ae565b80601f016020809104026020016040519081016040528092919081815260200182805461038a906110ae565b80156103d75780601f106103ac576101008083540402835291602001916103d7565b820191906000526020600020905b8154815290600101906020018083116103ba57829003601f168201915b50505050508152602001600382015481526020016004820160009054906101000a900473ffffffffffffffffffffffffffffffffffffffff1673ffffffffffffffffffffffffffffffffffffffff1673ffffffffffffffffffffffffffffffffffffffff168152602001600582018054610450906110ae565b80601f016020809104026020016040519081016040528092919081815260200182805461047c906110ae565b80156104c95780601f1061049e576101008083540402835291602001916104c9565b820191906000526020600020905b8154815290600101906020018083116104ac57829003601f168201915b505050505081526020016006820180548060200260200160405190810160405280929190818152602001828054801561052157602002820191906000526020600020905b81548152602001906001019080831161050d575b50505050508152505090507fc85c983619319f1264ffef1d55497988dd2c53afbb107dc100de832c38dce725826000015483600101836000015184602001518560400151866060015187608001518860a001518a6003018b600401546040516105939a99989796959493929190611175565b60405180910390a1505050505050505050565b60016020528060005260406000206000915090508060000154908060010180546105cf906110ae565b80601f01602080910402602001604051908101604052809291908181526020018280546105fb906110ae565b80156106485780601f1061061d57610100808354040283529160200191610648565b820191906000526020600020905b81548152906001019060200180831161062b57829003601f168201915b505050505090806002015490806003018054610663906110ae565b80601f016020809104026020016040519081016040528092919081815260200182805461068f906110ae565b80156106dc5780601f106106b1576101008083540402835291602001916106dc565b820191906000526020600020905b8154815290600101906020018083116106bf57829003601f168201915b5050505050908060040154905085565b6000602052806000526040600020600091509050806000015490806001018054610715906110ae565b80601f0160208091040260200160405190810160405280929190818152602001828054610741906110ae565b801561078e5780601f106107635761010080835404028352916020019161078e565b820191906000526020600020905b81548152906001019060200180831161077157829003601f168201915b5050505050908060020180546107a3906110ae565b80601f01602080910402602001604051908101604052809291908181526020018280546107cf906110ae565b801561081c5780601f106107f15761010080835404028352916020019161081c565b820191906000526020600020905b8154815290600101906020018083116107ff57829003601f168201915b5050505050908060030154908060040160009054906101000a900473ffffffffffffffffffffffffffffffffffffffff169080600501805461085d906110ae565b80601f0160208091040260200160405190810160405280929190818152602001828054610889906110ae565b80156108d65780601f106108ab576101008083540402835291602001916108d6565b820191906000526020600020905b8154815290600101906020018083116108b957829003601f168201915b5050505050905086565b60008787905011610926576040517f08c379a000000000000000000000000000000000000000000000000000000000815260040161091d90611280565b60405180910390fd5b60008311610969576040517f08c379a0000000000000000000000000000000000000000000000000000000008152600401610960906112ec565b60405180910390fd5b60004390506000806000838152602001908152602001600020905081816000018190555088888260010191906109a0929190610a96565b5086868260020191906109b4929190610a96565b5084816003018190555083838260050191906109d1929190610a96565b50338160040160006101000a81548173ffffffffffffffffffffffffffffffffffffffff021916908373ffffffffffffffffffffffffffffffffffffffff1602179055507f8000cdb7b429de3a6a4e461141af4c53358d701f0112516d20dc6d389acf95698160000154826001018360020184600301548560040160009054906101000a900473ffffffffffffffffffffffffffffffffffffffff1686600501604051610a839695949392919061130c565b60405180910390a1505050505050505050565b828054610aa2906110ae565b90600052602060002090601f016020900481019282610ac45760008555610b0b565b82601f10610add57803560ff1916838001178555610b0b565b82800160010185558215610b0b579182015b82811115610b0a578235825591602001919060010190610aef565b5b509050610b189190610b1c565b5090565b5b80821115610b35576000816000905550600101610b1d565b5090565b600080fd5b600080fd5b600080fd5b600080fd5b600080fd5b60008083601f840112610b6857610b67610b43565b5b8235905067ffffffffffffffff811115610b8557610b84610b48565b5b602083019150836001820283011115610ba157610ba0610b4d565b5b9250929050565b6000819050919050565b610bbb81610ba8565b8114610bc657600080fd5b50565b600081359050610bd881610bb2565b92915050565b60008060008060008060808789031215610bfb57610bfa610b39565b5b600087013567ffffffffffffffff811115610c1957610c18610b3e565b5b610c2589828a01610b52565b96509650506020610c3889828a01610bc9565b945050604087013567ffffffffffffffff811115610c5957610c58610b3e565b5b610c6589828a01610b52565b93509350506060610c7889828a01610bc9565b9150509295509295509295565b600060208284031215610c9b57610c9a610b39565b5b6000610ca984828501610bc9565b91505092915050565b610cbb81610ba8565b82525050565b600081519050919050565b600082825260208201905092915050565b60005b83811015610cfb578082015181840152602081019050610ce0565b83811115610d0a576000848401525b50505050565b6000601f19601f8301169050919050565b6000610d2c82610cc1565b610d368185610ccc565b9350610d46818560208601610cdd565b610d4f81610d10565b840191505092915050565b600060a082019050610d6f6000830188610cb2565b8181036020830152610d818187610d21565b9050610d906040830186610cb2565b8181036060830152610da28185610d21565b9050610db16080830184610cb2565b9695505050505050565b600073ffffffffffffffffffffffffffffffffffffffff82169050919050565b6000610de682610dbb565b9050919050565b610df681610ddb565b82525050565b600060c082019050610e116000830189610cb2565b8181036020830152610e238188610d21565b90508181036040830152610e378187610d21565b9050610e466060830186610cb2565b610e536080830185610ded565b81810360a0830152610e658184610d21565b9050979650505050505050565b60008060008060008060006080888a031215610e9157610e90610b39565b5b600088013567ffffffffffffffff811115610eaf57610eae610b3e565b5b610ebb8a828b01610b52565b9750975050602088013567ffffffffffffffff811115610ede57610edd610b3e565b5b610eea8a828b01610b52565b95509550506040610efd8a828b01610bc9565b935050606088013567ffffffffffffffff811115610f1e57610f1d610b3e565b5b610f2a8a828b01610b52565b925092505092959891949750929550565b7f6e6f6e2d76616c69642073747564656e74000000000000000000000000000000600082015250565b6000610f71601183610ccc565b9150610f7c82610f3b565b602082019050919050565b60006020820190508181036000830152610fa081610f64565b9050919050565b7f6e6f6e2d6578697374656e742063657274696669636174650000000000000000600082015250565b6000610fdd601883610ccc565b9150610fe882610fa7565b602082019050919050565b6000602082019050818103600083015261100c81610fd0565b9050919050565b7f696e76616c696420766f74650000000000000000000000000000000000000000600082015250565b6000611049600c83610ccc565b915061105482611013565b602082019050919050565b600060208201905081810360008301526110788161103c565b9050919050565b7f4e487b7100000000000000000000000000000000000000000000000000000000600052602260045260246000fd5b600060028204905060018216806110c657607f821691505b602082108114156110da576110d961107f565b5b50919050565b60008190508160005260206000209050919050565b60008154611102816110ae565b61110c8186610ccc565b9450600182166000811461112757600181146111395761116c565b60ff198316865260208601935061116c565b611142856110e0565b60005b8381101561116457815481890152600182019150602081019050611145565b808801955050505b50505092915050565b60006101408201905061118b600083018d610cb2565b818103602083015261119d818c6110f5565b90506111ac604083018b610cb2565b81810360608301526111be818a610d21565b905081810360808301526111d28189610d21565b90506111e160a0830188610cb2565b6111ee60c0830187610ded565b81810360e08301526112008186610d21565b905081810361010083015261121581856110f5565b9050611225610120830184610cb2565b9b9a5050505050505050505050565b7f696e76616c6964207469746c6500000000000000000000000000000000000000600082015250565b600061126a600d83610ccc565b915061127582611234565b602082019050919050565b600060208201905081810360008301526112998161125d565b9050919050565b7f696e76616c6964206d617820766f746500000000000000000000000000000000600082015250565b60006112d6601083610ccc565b91506112e1826112a0565b602082019050919050565b60006020820190508181036000830152611305816112c9565b9050919050565b600060c0820190506113216000830189610cb2565b818103602083015261133381886110f5565b9050818103604083015261134781876110f5565b90506113566060830186610cb2565b6113636080830185610ded565b81810360a083015261137581846110f5565b905097965050505050505056fea2646970667358221220c77398f80bcfdd1d7f3e5aa7d9e1f68c556bdc395582ab04800d03fc49a4f0c764736f6c634300080c0033",
  "immutableReferences": {},
  "source": "// SPDX-License-Identifier: MIT\npragma solidity ^0.8.0;\n\ncontract DigitalCV {\n\n    /**\n    Certificate\n     */\n    struct Certificate {\n        uint id;\n        string title;\n        string description;\n        uint max_vote;\n        address certifier;\n        string executor;\n        uint[] assignments;\n    }\n\n    mapping(uint => Certificate) public certificates;\n\n    event CreationCertificate(uint id, string title, string description, uint max_vote, address certifier, string executor);\n\n    function createCertificate(string calldata _title, string calldata _description, uint _max_vote, string calldata _executor) external {\n        require(bytes(_title).length > 0, \"invalid title\");\n        require(_max_vote > 0, \"invalid max vote\");\n        uint id = block.number;\n        Certificate storage certificate = certificates[id];\n        certificate.id = id;\n        certificate.title = _title;\n        certificate.description = _description;\n        certificate.max_vote = _max_vote;\n        certificate.executor = _executor;\n        certificate.certifier = msg.sender;\n        emit CreationCertificate(\n            certificate.id, \n            certificate.title, \n            certificate.description, \n            certificate.max_vote, \n            certificate.certifier, \n            certificate.executor\n        );\n    }\n\n    /**\n    Assignment\n     */\n    struct Assignment {\n        uint id;\n        string student;\n        uint certificate;\n        string comment;\n        uint vote;\n    }\n\n    mapping(uint => Assignment) public assignments;\n\n    event CreationAssignment(uint id, string student, uint id_certificate, string title, string description, uint max_vote, address certifier, string executor, string comment, uint vote);\n\n    function createAssignment(string calldata _student, uint _certificate, string calldata _comment, uint _vote) external {\n        require(bytes(_student).length > 0, \"non-valid student\");\n        require(certificates[_certificate].id > 0, \"non-existent certificate\");\n        require(0 < _vote && _vote <= certificates[_certificate].max_vote, \"invalid vote\");\n        uint id = block.number;\n        Assignment storage assignment = assignments[id];\n        assignment.id = id;\n        assignment.student = _student;\n        assignment.certificate = _certificate;\n        assignment.comment = _comment;\n        assignment.vote = _vote;\n        certificates[_certificate].assignments.push(id);\n        Certificate memory certificate = certificates[assignment.id];\n        emit CreationAssignment(\n            assignment.id, \n            assignment.student, \n            certificate.id, \n            certificate.title, \n            certificate.description, \n            certificate.max_vote, \n            certificate.certifier, \n            certificate.executor,\n            assignment.comment, \n            assignment.vote\n        );\n    }\n\n}",
  "sourcePath": "/Volumes/DISK0S3/Lavoro/redenv/progetti/digital_cv/smart_contract/contracts/DigitalCV.sol",
  "compiler": {
    "name": "solc",
    "version": "0.8.12+commit.f00d7308.Emscripten.clang"
  },
  "schemaVersion": "3.4.6",
  "updatedAt": "2022-03-24T01:06:03.156Z",
  "networkType": "ethereum",
  "devdoc": {
    "kind": "dev",
    "methods": {},
    "version": 1
  },
  "userdoc": {
    "kind": "user",
    "methods": {},
    "version": 1
  }
}